:100000000C9441050C9479050C9479050C947905B0
:100010000C9479050C9479050C9479050C94790568
:100020000C9479050C9479050C941C250C94F025FE
:100030000C94761F0C9479050C9479050C94790531
:100040000C9479050C9479050C9479050C94790538
:100050000C9479050C94FD1F0C9479050C9479058A
:100060000C9479050C9479050C9479050C94790518
:100070000C9479050C9479050C9479050C94790508
:100080000C9479050C9479050C9479050C947905F8
:100090000C9479050C9479050C9479050C947905E8
:1000A0000C9479050C9479050C94790529001400B9
:1000B0001A000800150017001C0018000C001200A0
:1000C00013002A002B0004001600070009000A0094
:1000D0000B000D000E000F0000002800E1001D00C5
:1000E0001B00060019000500110010003600520028
:1000F0000000E5002352E300E200225200002C0041
:10010000000021525000510000004F00007C3A00D6
:100110003B003C003D003E003F00400041004200EB
:10012000430044000100460049004A004B003900EA
:10013000AD00AE00AC00AB000000450001004C007B
:100140004D004E004700AA00A900A800350001009C
:1001500000000100E00001000100010000000100BA
:1001600000000100010001000000010033025900FD
:100170005A005B005C005D005E005F006000610093
:1001800062002A0033001E021F0220022102220206
:100190002302240225022602000027022D002E023F
:1001A0002E002F0230022F00300034003402630092
:1001B000000054002D0235023102010000002C0025
:1001C0000000310036023702000038022901140114
:1001D0001A010801150117011C0118010C01120177
:1001E00013012A012B0104011601070109010A016B
:1001F0000B010D010E010F0100002801E1011D019D
:100200001B010601190105011101100136015201FE
:100210000000E5010100E300E20000000000000032
:10022000000000005001510100004F0144454255BB
:10023000473A2064697361626C65642E0A00444524
:100240004255473A20656E61626C65642E0A000A69
:100250000025303258006C65645F7461736B3A201E
:10026000004F6E6573686F743A20616374697665D8
:100270003A2025640A000A002530313662003A200F
:100280000025303258000A722F6320303132333467
:1002900035363738394142434445460A00290A0079
:1002A0002575002F002575005D28002564002000BD
:1002B000256400200025640020002564007C0025C2
:1002C000303258006D6F7573656B6579205B6274B1
:1002D0006E7C782079207620685D287265702F61A9
:1002E000636C293A205B00313A0964656C617928B6
:1002F0002A31306D73293A2025750A323A09696E20
:1003000074657276616C286D73293A2025750A33FD
:100310003A096D61785F73706565643A2025750AE6
:10032000343A0974696D655F746F5F6D61783A2066
:1003300025750A353A09776865656C5F6D61785F88
:1003400073706565643A2025750A363A09776865E1
:10035000656C5F74696D655F746F5F6D61783A207D
:1003600025750A00703A097072696E742076616CA6
:100370007565730A643A097365742064656661750E
:100380006C74730A75703A092B310A646E3A092D40
:10039000310A6C743A092B31300A72743A092D31E2
:1003A000300A4553432F713A09717569740A0A730B
:1003B00070656564203D2064656C7461202A206D41
:1003C00061785F7370656564202A202872657065A6
:1003D0006174202F2074696D655F746F5F6D617843
:1003E000290A77686572652064656C74613A2063D8
:1003F0007572736F723D25642C20776865656C3D5E
:1004000025640A53656520687474703A2F2F656EF1
:100410002E77696B6970656469612E6F72672F77DB
:10042000696B692F4D6F7573655F6B6579730A0032
:100430004D3E20004D25753A25733E20003F0A00B1
:100440003D2025750A003F0A0064656661756C747D
:10045000730A0025750A003F0A000A092D2056611B
:100460006C756573202D0A00710A000A092D204D54
:100470006F7573656B6579202D0A003F00433E2040
:10048000004C25640A000A092D20537461747573A9
:10049000202D0A686F73745F6B6579626F61726497
:1004A0005F6C65647328293A20253032580A6B65E1
:1004B00079626F6172645F70726F746F636F6C3AB0
:1004C00020253032580A6B6579626F6172645F690A
:1004D000646C653A20253032580A74696D65725F24
:1004E00072656164333228293A202530386C580A05
:1004F000002573000A092D20436F6E736F6C652011
:100500002D0A4553432F713A09717569740A6D3A82
:10051000096D6F7573656B65790A000A092D204DA9
:1005200061676963202D0A443A0944656275672052
:100530004D65737361676520546F67676C650A5812
:100540003A094D6174726978204465627567204D7F
:100550006F646520546F67676C65202D2053686F4A
:1005600077206B65797072657373657320696E208F
:100570006D617472697820677269640A4B3A094B3D
:100580006579626F61726420446562756720546F9B
:1005900067676C65202D2053686F77206B657970D5
:1005A00072657373207265706F72740A4D3A0944F4
:1005B00065627567204D6F75736520546F67676C52
:1005C000650A563A0956657273696F6E0A533A099D
:1005D0005374617475730A433A09416374697661AF
:1005E000746520436F6E736F6C65204D6F64650A90
:1005F00046312D4631303A09537769746368207467
:100600006F204C6179657220302D392028463130B9
:10061000203D204C30290A302D393A09537769742E
:10062000636820746F204C6179657220302D390A1F
:1006300047524156453A0953776974636820746F8D
:10064000204C6179657220302028616C7465726E6F
:10065000617465290A423A094A756D7020746F20E9
:10066000426F6F746C6F616465720A4553433A0957
:100670004A756D7020746F20426F6F746C6F616487
:1006800065722028616C7465726E617465290A4513
:100690003A095072696E7420454550524F4D2053AF
:1006A000657474696E67730A4241434B535041430A
:1006B000453A09436C65617220454550524F4D0AD9
:1006C000006B65796D61705F636F6E6669672E722E
:1006D00061773A20253032580A2E737761705F6354
:1006E0006F6E74726F6C5F636170736C6F636B3A83
:1006F0002025750A2E636170736C6F636B5F746F76
:100700005F636F6E74726F6C3A2025750A2E737773
:1007100061705F6C63746C5F6C6775693A202575F6
:100720000A2E737761705F7263746C5F72677569AC
:100730003A2025750A2E737761705F6C616C745F67
:100740006C6775693A2025750A2E737761705F7240
:10075000616C745F726775693A2025750A2E6E6F39
:100760005F6775693A2025750A2E737761705F6738
:10077000726176655F6573633A2025750A2E73771B
:1007800061705F6261636B736C6173685F62616308
:100790006B73706163653A2025750A2E6E6B726FFC
:1007A0003A2025750A2E737761705F6573636170F7
:1007B000655F636170736C6F636B3A2025750A0027
:1007C00064656275675F636F6E6669672E726177D5
:1007D0003A20253032580A2E656E61626C653A20E7
:1007E00025750A2E6D61747269783A2025750A2E76
:1007F0006B6579626F6172643A2025750A2E6D6FA0
:100800007573653A2025750A006565636F6E6669C4
:10081000673A0A64656661756C745F6C61796572CC
:100820003A2025750A003F000A6D6F7573653A20FE
:100830006F66660A000A6D6F7573653A206F6E0AFF
:10084000000A6B6579626F6172643A206F66660AAE
:10085000000A6B6579626F6172643A206F6E0A00FC
:100860000A6D61747269783A206F66660A000A6DD3
:1008700061747269783A206F6E0A000A6465627565
:10088000673A206F66660A000A64656275673A20F7
:100890006F6E0A000A0A4A756D70696E6720746F80
:1008A00020626F6F746C6F616465722E2E2E200053
:1008B000433E2000436C656172696E672045455078
:1008C000524F4D0A000A002530325820006B6579DE
:1008D000626F6172645F7265706F72743A20007348
:1008E000757370656E64696E67206B6579626F61A0
:1008F00072640D0A005B575D005B535D005B525DE7
:10090000005B445D005B435D000C0342004D00341E
:100910000033004100000016034B005000520065F8
:10092000007000750062006C006900630000000444
:1009300003090409025B00030100A0FA0904000096
:1009400001030101000921110100012244000705F2
:1009500081030800010904010001030000000921CE
:1009600011010001227B0007058203200001090418
:1009700002000203000000092111010001222200EF
:10098000070583032000010705030320000112016E
:10099000000200000008EDFE00000100010200015D
:1009A0000631FF0974A1010975150026FF00952085
:1009B000750881020976150026FF009520750891BB
:1009C00002C005010902A10185020901A100050972
:1009D00019012908150025019508750181020501F5
:1009E000093009311581257F95027508810609387E
:1009F0001581257F950175088106050C0A380215B9
:100A000081257F950175088106C0C005010980A177
:100A100001850319012AB700150126B70095017554
:100A2000108100C0050C0901A101850419012AA04B
:100A300002150126A002950175108100C00501096B
:100A400006A101050719E029E7150025019508759C
:100A50000181029501750881010507190029FF151B
:100A60000026FF0095067508810005081901290573
:100A700015002501950575019102950175039101F8
:100A8000C00011241FBECFEFDAE0DEBFCDBF04B639
:100A900003FE18C080919F039091A003A091A10331
:100AA000B091A2038730904BA740B04B59F41092FD
:100AB0009F031092A0031092A1031092A203E0E002
:100AC000F8E3099512E0A0E0B1E0E0E6F1E502C04C
:100AD00005900D92A03CB107D9F723E0A0ECB2E05D
:100AE00001C01D92AF39B207E1F70E941B160C94AA
:100AF0006F280C940000FF93EF93E091C002F091F7
:100B0000C102309709F00995EF91FF910895FC011A
:100B10008591803011F0EFDFFBCF0895FF27E0E2F1
:100B200030E247FF0CC0419597FF09C0EDE26095A8
:100B3000709580959095611D711D811D911D27FFF8
:100B400002C0219530E350E2AA27660F771F881F65
:100B5000991FAA1FA41710F0A41B63955A95A9F713
:100B6000AA3008F0A95FA05DAF93F39561157105F8
:100B70008105910541F7ED3211F4EF93F395F217EA
:100B800018F43F93F395FBCF8F91B5DFFA95E1F71A
:100B90000895E991F9918591803021F0853219F01D
:100BA000AADFF9CF089520E0E89455915532C1F3BA
:100BB000503311F4689455915A3348F4505390F3DC
:100BC000220F022E220F220F200D250FF4CF0EF43C
:100BD000219589919991533619F3533729F153355A
:100BE00059F1BC0188279927E8945C3621F4899152
:100BF000999168945591543639F446EF7EF077FF19
:100C00000DC08FEF9FEF0AC055374AE039F05835D5
:100C100040E121F0523642E009F00895FF93EF934E
:100C20007DDFEF91FF91B7CFFF93EF93FC018191AF
:100C30008030B9F360DFFBCFFF93EF9368DFF1CF34
:100C4000DF93CF93CDB7DEB72596A3DFCF91DF91AA
:100C500008958430B8F46430A8F44C3098F450E02F
:100C60009CE0699F400D511D1124FA0190E3899F7A
:100C7000E00DF11D1124EE0FFF1FE455FF4F85918C
:100C80009491089581E090E008950E9429060895C6
:100C900081E008950E944806089581E008950E9429
:100CA000480608950E944F06089508950E9455062B
:100CB0000895A6E0B0E0EFE5F6E00C94CB27498379
:100CC0005A839E833091C70289819A8131111AC05B
:100CD0003E81332399F0222389F00E94480C182F7B
:100CE000682F89819A810E94240C69817A81812FE1
:100CF0000E9442132696E3E00C94E7270E94360CEC
:100D0000182FF3CF0E94480C69817A81F1CFFC0142
:100D1000262F4081518162817381848195810E9457
:100D200059060895CF93DF93EC0161E00E94870696
:100D3000BE010E944A06DF91CF910895CF93DF93C1
:100D4000EC0160E00E948706BE010E945606DF911A
:100D5000CF91089508950E94F90A0E94AA062FEFE4
:100D600084E39CE0215080409040E1F700C0000007
:100D700008950E94AB060E94212008950E94AB06B0
:100D80000E94452008950F931F93CF93DF938C010A
:100D900061E00E948706EC01B8010E9452068111B1
:100DA00006C080E0DF91CF911F910F910895B801A7
:100DB000CE010E94BC1D8823A1F3B801CE010E9480
:100DC0003319882371F3B801CE010E942E1D8823A8
:100DD00041F3F8018581882369F0C330FCE7DF0720
:100DE00081F160F4C130ECE7DE0769F1C0F4C115B0
:100DF000DC4791F0C8010E944D06D4CFCB35ECE71B
:100E0000DE0739F1CC35FCE7DF0701F1CA35DC47F5
:100E100089F70E949110EECF0E94B906C2CF90913F
:100E20004C03892F8E7F90FF816080934C0380FF5D
:100E300005C08EE392E00E948705B3CF8CE292E07A
:100E4000FACF0E9499100E94BE06ABCF0E94871075
:100E5000D1CF0E949510CECF0E94521F0E947807DA
:100E600008950E947C070E94571F0895829590E084
:100E70009C01220F331F220F331F2C7C95958795E1
:100E8000959587958373282B30E0C901880F991FAA
:100E90008A7A359527952575822B0895CF93DF9310
:100EA000D92F0E943607C82F8D2F0E9436079C2FFE
:100EB000DF91CF910895089581E008950895CF932B
:100EC000DF93D82F0E945C07C82F882319F08D2F3D
:100ED0000E945E078C2FDF91CF9108950895CF93E4
:100EE000C82F0E945B078C2F0E945F07CF91089547
:100EF00080E00E946F0708950E94051E0E946F0700
:100F00000895CF930E94051EC82F8091C2028C17AE
:100F100089F1C093C2020E94E21F6093C3027093E2
:100F2000C4028093C5029093C60280914C0382FF55
:100F30001EC080FF1CC086E592E00E94870580915C
:100F40004C0380FF14C01F92CF9381E592E09F93E2
:100F50008F930E94200680914C030F900F900F906A
:100F60000F9080FF04C08FE492E00E9487058C2FD1
:100F70000E946F07CF910895ADE0B0E0E2ECF7E09A
:100F80000C94CC27488759876A877B878C879D87F5
:100F900091110E94AC0F1F8286E0FE013896DE019F
:100FA000119601900D928A95E1F78D8181110DC006
:100FB00029813A814B815C816D817E818F810E9484
:100FC000DF0E2D96E2E00C94E827CE0101960E94F8
:100FD00092068111EDCFF5CFFC012481213021F45F
:100FE000808191810E947A0C0895662329F00E94E5
:100FF000B2160E94851708950E940C17FACFCF935E
:10100000C82F8823E1F08CEF8C0F813AD0F48C2F1D
:101010000E94DA1C811113C06C2F80910001909105
:1010200001010E94C01E882329F08C2F0E946C0FA2
:101030000E94E50F8C2F0E94640F0E94E50FCF9154
:10104000089580E28C0F883048F4C77081E001C0B9
:10105000880FCA95EAF70E948F0FEFCFEBE5EC0FF0
:10106000E33040F4F0E0E75BFE4F808190E00E94C7
:10107000641EE5CFE8E5EC0FEB3150F4F0E0EE0F45
:10108000FF1FED5EFE4F808191810E94891ED7CFA8
:1010900083E38C0F833198F661E08C2F0E94F50773
:1010A000CECF882381F19CEF980F913A28F40E94CB
:1010B0006C0F0E94E50F089590E2980F983050F45D
:1010C000877091E001C0990F8A95EAF7892F0E94F5
:1010D000950FEFCF9BE5980F933028F490E080E0D8
:1010E0000E94641E089598E5980F9B3128F490E0C3
:1010F00080E00E94891E089593E3980F933118F4BD
:1011000060E00E94F50708951F93CF93DF93182F97
:10111000EB010E94FF07209739F4812F0E945108AC
:10112000DF91CF911F9108958FE99FE00197F1F72B
:1011300000C000002197EFCF70E060E0893311F428
:1011400060E570E00E9484080895882321F00E94E1
:101150008F0F0E94E50F0895882321F00E94950FBC
:101160000E94E50F0895B0E0A0E0E9EBF8E00C94F0
:10117000C5276C01D62FC72FFC011581068102956A
:101180000F700E94850FE82E8823E9F0E12E1123CD
:10119000D1F08C2F807F803451F080E28D0F883029
:1011A000F8F0011104C08C2F807E8032C9F080914C
:1011B0007D0382FF15C082E00E9448100E94850FC7
:1011C00091E0E82EE926BC2EB2949FE0B922FBE024
:1011D000FB15B8F1EB2DF0E0EF58F74D0C94B62766
:1011E000E12CF1CF0C2F0F70C07F11F00295007F22
:1011F000112399F0002359F080E28D0F883010F010
:10120000D11107C0802F0E948F0F0E94E50F8D2FF4
:101210005AC0802F0E949F0FF8CF8D2F0E94510837
:10122000002379F080E28D0F883010F0D11104C0D6
:10123000802F0E94950F03C0802F0E94A50F0E944F
:10124000E50FEB2DE850FF0B349720F40E94051EAC
:101250000E946F07EE2089F00E94810F80FD0DC073
:10126000F60115820E947B0F0E94820BC6010E942C
:10127000C00A0E947B0F0E94920BCDB7DEB7E9E057
:101280000C94E1272C2F2F70F22EC07FC03219F062
:10129000F29480EFF822DD2341F0D130D1F1112317
:1012A00009F444C00023F1F0B2CF80917D0382FDA8
:1012B00015C0112359F0FF2029F08F2D0E948F0FA8
:1012C0000E94E50F80E00E94FF07BBCF80E00E94F4
:1012D0005108FF2009F4B5CF8F2DABCF112369F052
:1012E000011104C08F2D0E94A508ABCF013009F079
:1012F000A8CF8F2D0E94C30FA4CF0111A2CF8F2D95
:101300000E94AC088F2D0E94CF0F8F2D0E94B30F2B
:1013100098CF112321F0063008F093CFE3CF0530AA
:1013200008F08FCF8F2D0E94AC088BCF0023D1F314
:10133000D93349F43FEF87EE93E03150804090403D
:10134000E1F700C000008D2F0E9451087ACF8C2F4A
:1013500086958695837069F0813009F072CF8D2F64
:101360009C2F9370111102C080E090E00E94891EB2
:1013700068CF8D2F9C2F9370111102C080E090E0F8
:101380000E94641E5ECF612F8D2F0E94F50759CFFA
:101390008C2F8370A1F5111154CF4D2F4295469596
:1013A0004770440F440F2D2F2F7030E0042E02C0E1
:1013B000220F331F0A94E2F790E080E0D4FF09C0C7
:1013C0008FE090E002C0880F991F4A95E2F7809560
:1013D0009095C695C695C370822B932BC23049F069
:1013E00058F4C13019F00E94520B2BCF0E94490BC8
:1013F00028CF0E945B0B25CF0E94460B22CF8695FB
:10140000112311F08C2F8170882309F41ACF4D2FEE
:10141000429546954770440F440F2D2F2F7030E0B2
:10142000042E02C0220F331F0A94E2F790E080E0FE
:10143000D4FF09C08FE090E002C0880F991F4A9541
:10144000E2F780959095C695C695C370822B932B35
:10145000C23049F058F4C13019F00E94BD0BF1CEF2
:101460000E94B40BEECE0E94C60BEBCE0E946A0B1C
:10147000E8CECF70112329F08C2F0E94820B8D2F84
:1014800032CF8D2F0E94AC088C2F0E94920BD9CEA8
:10149000D23F41F160F4D03FB9F0D13F81F0112348
:1014A00009F446C00111B3CE8C2F8F711FC0D33FFA
:1014B00001F1D43FA1F780917D0382FD24C08C2FE0
:1014C0008F71112311F312C0112341F0053008F080
:1014D000B8CE8C2F8F710E94A40BB3CE063008F0CB
:1014E000B0CEF7CF8C2F8F711111CFCF0E94820B0E
:1014F000A8CE112329F08C2F8F710E94760BA1CEDC
:101500000E94710B9ECE112349F0CF718C2F0E9447
:10151000820B63E08C2F0E942A1093CE81E00E9400
:101520004810023008F48DCE82E00E94481089CE27
:10153000002359F0D93309F006CFEFEFF7EE23E09F
:10154000E150F0402040E1F7FCCE8C2F8F719DCF11
:101550000F931F93CF93DF93EC01688179818D8185
:101560000E94850C8C010E94CF0B0E94450BB80194
:10157000CE010E94B308DF91CF911F910F91089582
:10158000CF93DF93EC018C81882399F0CE010E94E8
:10159000C306811111C00E94850F882351F08D81EF
:1015A000882339F080917D0382FF03C082E00E948E
:1015B0004810DF91CF910895CE010E94A80ACE0174
:1015C0000E949E06F6CF90E080E00E94641E90E0AC
:1015D00080E00E94891E0E94AC0F0E94E50F0E94CD
:1015E00023180E94851708950E94740F0E94E30A31
:1015F00008950E949C0F0E94F40A089592959F708E
:10160000963091F058F4925F9F70923058F4803F7A
:1016100019F030F4883E30F481E008959A5FF4CFF9
:10162000843FD1F380E00895883EB0F3813FD1F745
:10163000F3CFFC012481222339F0808191810E9423
:101640007A0C0E94FE0A089580E00895A6E0B0E0BA
:10165000ECE2FBE00C94CC272696E2E00C94E82721
:10166000A7E0B0E0E6E3FBE00C94CC272796E2E0AD
:101670000C94E82708950E943A0B08950E943B0BB2
:101680009093E3028093E202089508950E943E0B36
:1016900008952091E2023091E302822B932B0E9465
:1016A0003E0B08952091E2023091E30282239323BE
:1016B0000E943E0B08952091E2023091E3028227BE
:1016C00093270E943E0B08950E943A0B08950E94B2
:1016D000640B08950E94670B9093E1028093E002EF
:1016E000089590E080E00E946A0B089521E030E0C8
:1016F000A90102C0440F551F8A95E2F7CA010E9452
:101700006A0B089521E030E002C0220F331F8A9552
:10171000E2F78091E0029091E102822B932B0E94EC
:101720006A0B089521E030E002C0220F331F8A9532
:10173000E2F7209530958091E0029091E1028223BA
:1017400093230E946A0B089521E030E002C0220F2B
:10175000331F8A95E2F78091E0029091E10282279F
:1017600093270E946A0B08952091E0023091E102D4
:10177000822B932B0E946A0B08952091E0023091F6
:10178000E102822393230E946A0B08952091E002D4
:101790003091E102822793270E946A0B08950895F1
:1017A000262F277091E001C0990F2A95EAF723E0D0
:1017B000769567952A95E1F7660F771F660F771F75
:1017C000FA01E60FF71F50E040E0682F70E08191CA
:1017D000DF0111979B01042E02C0369527950A94CC
:1017E000E2F7217021952827292328272C934F5F82
:1017F0005F4F4430510559F70895A82FA77023E093
:10180000969587952A95E1F7880F991F880F991F5C
:10181000FB01E80FF91F50E040E080E0219130E04B
:101820000A2E02C0369527950A94E2F721703327D5
:10183000042E01C0220F0A94EAF7822B4F5F5F4FFC
:101840004430510559F70895262F943070F48C30A8
:1018500060F4682F70E08CE0989F600D711D11247A
:1018600048EC52E0822F0E94D00B0895292F94302B
:1018700068F48C3058F490E068EC72E03CE0239F10
:10188000800D911D11240E94FD0B089580E00895A4
:10189000B0E0A0E0EEE4FCE00C94C5277C010091F0
:1018A000E0021091E1028091E2029091E302082BA4
:1018B000192BCFE0D0E0CC24C394D12CBC2EC60190
:1018C0000C2E02C0880F991F0A94E2F780239123FF
:1018D000892B49F4219790F7B12C8B2DCDB7DEB72A
:1018E000E9E00C94E127B7018C2F0E944E13019779
:1018F00089F3F3CFCF93DF93EC010E94480CBE0134
:101900000E944E13DF91CF9108951F93CF93DF93E1
:10191000EB019091C702992339F0CB010E947A0C18
:10192000DF91CF911F910895882369F0CB010E9428
:10193000480C182F682FCE010E94240CBE01812F65
:101940000E944E13EDCFCB010E94360C182FF6CF1C
:101950001F93CF93DF93C091E40217E08091E502DB
:101960008C1304C0DF91CF911F910895D0E01C9F8C
:10197000F0011D9FF00D1124EA51FD4F20813181AE
:10198000428153816481758186810E94300B21964A
:10199000C770E4CF20911E0330911F0340912003B4
:1019A00050912103609122037091230380912403BD
:1019B0000E94300B0895CF93DF9380912403807FA2
:1019C00009F04DC080912303882309F448C0E091B9
:1019D000E4025091E502C0911F03D0911E03609173
:1019E00020037091210347E05E17C9F18E2F90E02C
:1019F000E49FF0011124EA51FD4F2481222391F14B
:101A0000489FF001499FF00D1124DF01AA51BD4FFD
:101A100011962C9111972C1325C02C912D1322C0B7
:101A200015962C91159721111DC012962D913C9160
:101A3000261B370B283C3105A8F4809124038F70B6
:101A4000806180932403E451FD4F80818F70806119
:101A500080838EE193E00E94C00A0E94A80CDF916F
:101A6000CF910895FC013196E770BECF482F2091A9
:101A7000E4029091E50257E0291302C080E0089546
:101A800030E0529FF001539FF00D1124EA51FD4FB9
:101A90008181681306C08081481303C0858181114C
:101AA000EECF2F5F3F4F2770E7CFA4E1B0E0EBE52B
:101AB000FDE00C94C2278C0186E0F801DE011F9640
:101AC00001900D928A95E1F7F8018481E5809EE10D
:101AD000A92E93E0B92E9091220391111FC0882363
:101AE000D1F0EE20A9F0C8010E94190BF82E88232E
:101AF00079F087E0F801D50101900D928A95E1F720
:101B0000C5010E94EC070E94DB0C0E94CA0C5FC05A
:101B1000C8010E94C00AFF24F39459C0C080D1803C
:101B200082809380F0902303209120033091210341
:101B3000A401421B530BFF2009F4F9C0483C510596
:101B400008F0A7C0882309F442C090911F03809138
:101B50002403282F207F09F05CC09D1116C09091AE
:101B60001E03C91212C0E1104EC08F7080618093B5
:101B700024030E94CA0C8EE193E00E94C00A809167
:101B80002403F8018683F12C22C0E1103CC06D2DA6
:101B90008C2D0E94360D6D2D8C2D0E94360DE82E59
:101BA0008111F1CFCF86D88A8F8598890E947A0CCF
:101BB000292F22952F70243078F49F702230A8F0BE
:101BC0009923B9F0F8019681907F99F4FE2C8F2D1E
:101BD0006496ECE00C94DE272A5F2F70223068F0C8
:101BE000C8010E94C00AEF2CF1CF992311F088237D
:101BF00069F3805E883050F3F3CF803F38F3815F24
:101C0000833070F7E3CF80912403816080932403B5
:101C1000BACF9D1113C090911E03C9120FC0E110DD
:101C20000DC08683C8010E94C00A87E0F801AEE1BA
:101C3000B3E001900D928A95E1F767CFC8010E9449
:101C4000190B882309F464CFEE2009F461CF809149
:101C50002403803288F020911E0330911F033987BE
:101C600028879B868A86909122039C871D868E8773
:101C7000CE0108960E94C00A87E0F801AEE1B3E009
:101C800001900D928A95E1F70E94DB0C0E94CA0C2C
:101C900042CF90912403292F207FA1F4682D9A8AA6
:101CA000898AA6017A899E2D0E94260B8EE193E0F7
:101CB0000E94C00A87E0F50111928A95E9F70E9417
:101CC000CA0C61CF882309F482CF80911F038D1144
:101CD00010C080911E03C8120CC0E1100AC0968388
:101CE000C8010E94C00A87E0F50111928A95E9F7C0
:101CF0006ECFC8010E94190B882309F409CFEE208A
:101D000009F406CF80912403803208F4B5CF2091E6
:101D10001E0330911F033A8329839C828B8290910A
:101D200022039D831E828F83CE010196A3CF483C60
:101D30005105B8F5882309F4EECEFE2CEE2009F407
:101D4000E7CE80911F038D111EC080911E03C81223
:101D50001AC08091240380FD0DC0982F907F51F010
:101D60008683903F09F45ECF982F907F905F8F70AD
:101D7000892B57CF87E0F801AEE1B3E001900D92D7
:101D80008A95E1F724CFC8010E94190B811174CF05
:101D900080912403816080932403C8010E94C00ABB
:101DA00016CF682D9A8A898AA6017A899E2D0E946B
:101DB000260B87E0F50111928A95E9F7A6CEAEE0F1
:101DC000B0E0E5EEFEE00C94CB27288739874A8700
:101DD0005B876C877D878E87CE0108960E94550DA4
:101DE0008823B1F06C85662341F0288539854A85C2
:101DF0005B857D858E850E94300B17E08091E40223
:101E00009091E50289133DC02E96E3E00C94E727FC
:101E100087E0FE013896DE01119601900D928A95B9
:101E2000E1F78C85882349F32091E50230E0C90170
:101E30000196877099274091E4024817190699F096
:101E400097E0929FD001939FB00D1124AA51BD4FEE
:101E5000FE01319601900D929A95E1F78093E5028B
:101E60000E94A80CCACF0E94F90A1092E5021092B3
:101E7000E40287E0EEE1F3E0DF011D928A95E9F7E5
:101E8000BCCF819FC00111248A519D4F0E94550DE6
:101E9000882309F4B9CFE091E4021E9FF0011124D8
:101EA000EA51FD4F208131814281538164817581E6
:101EB00086810E94300B8091E40290E00196877049
:101EC00099278093E4029ACF682F80910001909126
:101ED00001010E94F61E0895682F809100019091E3
:101EE00001010E94F91E0895809100019091010165
:101EF0000E94FC1E089580912D03869586958695F7
:101F0000089580912D038770089590912D03977007
:101F100081E009F480E0089580913903089590915B
:101F20003903892B80933903089580959091390363
:101F3000982390933903089510923903089590914E
:101F40003803892B80933803089580959091380346
:101F500098239093380308951092380308950895B4
:101F60000E94AF0F089590912E03292F282331F05E
:101F70008095892380932E030E94B00F08950895C1
:101F80000E94BF0F089590912F03292F282328170F
:101F900029F0982B90932F030E94C00F08959091E1
:101FA0002F03292F282331F08095892380932F0335
:101FB0000E94C00F089580912F03882329F010926A
:101FC0002F0380E00E94C00F0895CF93DF93E0912C
:101FD0000001F0910101809139038083E0910001BB
:101FE000F0910101808190913803892B8083909139
:101FF0002F03992381F0E0910001F091010180818C
:10200000892B808380910001909101010E94AE1E76
:1020100081110E94DB0FC0910001D091010148E0C5
:1020200050E065E273E0CE010E940728892B59F049
:1020300088E0FE01A5E2B3E001900D928A95E1F7F8
:10204000CE010E94121EDF91CF91089508950E9443
:102050002610089590917D0392FF11C098E0899F0A
:1020600090011124622B60932D030E94820B8091BA
:102070002D038695869586950E94271008950E94C7
:10208000820B089510922D0380E00E94271008957E
:1020900090912D038095892380932D03282F2770FD
:1020A00069F4891759F090917D0392FF07C08695D6
:1020B000869586950E94920B0E9442100895CF93B8
:1020C000C82F80917D0382FB992790F99C17E9F036
:1020D000C0FB82F980937D0380917C0390917D0306
:1020E0000E94BA1082E00E94481080914C0380FF49
:1020F0000CC01F92CF9381E692E09F938F930E9432
:1021000020060F900F900F900F90CF91089580911F
:102110007D0382FB882780F991E089270E945F1068
:10212000089581E00E945F10089580E00E945F1092
:1021300008956FEF7FEF90E080E00E9459280895A6
:1021400090E080E00E94252821E0863E9E4F09F025
:1021500020E0822F089582E090E00E941D280895DB
:1021600083E090E00E941D28089584E090E00E94A2
:1021700025280895BC0184E090E00E945928089524
:10218000AB01BC018FE090E00E944D280895AB01A7
:10219000BC0183E190E00E944D28089560E070E06A
:1021A000CB010E94C710089560E070E0CB010E944F
:1021B000C0100E94CE100895A8E0B0E0E2EEF0E179
:1021C0000C94CC2766EE7EEF90E080E00E945928C8
:1021D00060E082E090E00E943B2860E083E090E0D5
:1021E0000E943B281092E3021092E20260E074E148
:1021F00084E090E00E94592860E086E090E00E9430
:102200003B286FEF87E090E00E943B2840E050E0E1
:10221000BA0188E090E00E944D2860E084E290E0FE
:102220000E943B2860E087E190E00E943B2860E04C
:102230008CE090E00E943B2860E08DE090E00E94FE
:102240003B2819821A821B821C821D821E821F82D9
:10225000188648E050E068E170E0CE0101960E94E7
:102260002B2840E050E0BA0180E290E00E944D2827
:102270000E94D4102896E2E00C94E8270E94DC101B
:102280000895682F8EE090E00E943B280895A6E014
:10229000B0E0EDE4F1E10C94CA270E94D61F8C0156
:1022A00080913A0390913B038017910781F0198246
:1022B0001A820E94D61F682F49815A81792F80E0A7
:1022C00090E00E94BC0710933B0300933A032696CC
:1022D000E4E00C94E6270E94E21F609348037093A9
:1022E000490380934A0390934B0360934403709394
:1022F00045038093460390934703089508950895F6
:102300000E947E11089508950E94831108958AEE17
:1023100091E20E9428160E947F110E948011089568
:1023200081E008950E94901108950E9490110895EF
:10233000089508950E9498110E94991108950E948D
:1023400061140E946E0708950E94CD1F0E947C15A3
:102350000E949F110E9484110895A6E0B0E0E3EB73
:10236000F1E10C94C0270E94921181110AC00E94D1
:1023700047110E9445180E9481072696EEE00C94B2
:10238000DC270E9492152CE3822E23E0922E64011A
:1023900010E0F601E190F1906F01812F0E94871407
:1023A0001F5F143009F44BC0E816F90691F38091D1
:1023B0004C0381FD0E9490140E949511782E10E02C
:1023C00066246394812F0E9487147C01F401A190FC
:1023D000B1904F018A159B0561F100E0CC24C394B4
:1023E000D12CAE24BF24C5018C219D21892BC1F0A5
:1023F0007720B1F009831A830E94D61F9C838B83B8
:102400006D8221E0C7018C219D21892B09F420E0F8
:1024100049815A816B817C818D81922F0E94BC07FA
:102420000F5FCC0CDD1C0C30F1F6F4013297F18219
:10243000E0821F5F143031F60E946B119ACFE816CC
:10244000F90609F0B4CF93CF1F93CF93DF930E9487
:102450005313EC01C11580E5D807F0F5C11580E4F0
:10246000D80708F09CC0C03ED10520F5CD3CD10571
:1024700008F082C0C83AD10578F4C53AD10508F011
:1024800073C0C130D10519F1209709F1C430D105CD
:10249000F0F4D0E0C0E01BC0C33CD105D0F7C85A6F
:1024A000D0E0CC0FDD1FC45BDE4F0990D881C02D7A
:1024B000D4640DC0C11580E2D80708F0D1C0C115A1
:1024C00081E0D80708F05AC0C83ED10510F7CE0108
:1024D000DF91CF911F910895C03682E5D80718F596
:1024E000C03482E5D80708F06BC0C03282E5D80757
:1024F00008F05FC0C11582E5D80708F497C02C2FFB
:102500002695269580E2289F900111248C2F8370B8
:10251000C1E0D0E002C0CC0FDD1F8A95E2F7C22BEC
:10252000D32BDD68D4CFC03A82E5D80760F4C03839
:1025300082E5D80708F459C0CF71D0E0DC2FCC2752
:10254000C46FD06AC4CFC03C82E5D80708F462C02B
:10255000C03E82E5D80708F09CCFDC2FCC27CC27E3
:10256000DF71C06FD06AB3CFC55AD0E0CE57DE4F0F
:10257000C881D0E0D064ABCFD065A9CF8D2F0E94A9
:10258000F513182FCE0199270E945313C12FD0E0C5
:10259000DC2FCC27CC27DF71C82BD92B98CFCE01CD
:1025A00099270E945313CC27DF70C82BD92BD06AF0
:1025B0008ECFCF71D0E0DC2FCC27C16FD06A87CF10
:1025C0002C2F26952695277080E2289F90011124B4
:1025D0008C2F8370C1E0D0E002C0CC0FDD1F8A9544
:1025E000E2F7C22BD32BDC6872CF2C2F26952695D1
:1025F000277080E2289F900111248C2F8370C1E006
:10260000D0E002C0CC0FDD1F8A95E2F7C22BD32B9E
:10261000DA685DCF8C2F8F710E94F513C82FD0E040
:10262000DC2FCC27CC27DF71D06251CF8C2F8F715C
:102630000E94F51355E0D695C7955A95E1F7CF70EE
:10264000D0E0DC2FCC27282F30E084FF05C044E009
:10265000220F331F4A95E1F7C22BD32BD06937CF16
:102660008D2F8F710E94F513182FCE0199270E948C
:102670005313C12FD0E0DC2FCC27CC27DF71C82B20
:10268000D92BD2CF462F743030F46C3020F4672F22
:102690000E944506089590E080E008950E9442134C
:1026A0000E942412089582389105B9F1B0F4813363
:1026B000910509F47DC048F48932910509F46DC093
:1026C0008A32910509F47BC008958533910509F498
:1026D0005FC08933910509F10895833E9105D9F1D1
:1026E00038F4803E910529F1823E910579F10895F3
:1026F000863E9105D9F1873E910509F43EC0843E9E
:10270000910541F520917D0321FF24C080917C0338
:1027100084FD19C087EE90E0089520917C0323701A
:1027200009F05AC020917D0323FF14C089E290E094
:10273000089520917C0320FD38C030917D0330FF47
:1027400009C024FF43C090E080E0089520917C03FD
:1027500022FDF7CF089520917C0322FD3AC03091ED
:102760007D0330FD39C024FFF5CFEDCF20917C03F0
:1027700023FFF0CF24FDE7CFCDCF20917C0323FDB5
:102780002EC030917D0331FFEECF84EE90E00895AE
:1027900020917C0325FFDECFC9CF20917C0325FD4E
:1027A00021C020917D0323FFD5CF89E390E0D2CFD4
:1027B00020917C0326FFCECF8AE290E008952091FD
:1027C0007C0326FFC7CF81E390E0089583EE90E07D
:1027D000089582EE90E0089580EE90E0089586EEF0
:1027E00090E0089585E390E0089590917C0392FF36
:1027F00010C041E0282F2471243009F040E031E07E
:10280000282F2871283009F030E0431711F02CE010
:10281000822793FF10C041E0282F2471243109F052
:1028200040E031E0282F2871283109F030E04317CB
:1028300011F02CE0822730917D0330FF10C051E071
:10284000282F2171213009F050E041E0282F287114
:10285000283009F040E0541711F029E0822731FFB9
:1028600010C041E0282F2171213109F040E031E012
:10287000282F2871283109F030E0431711F029E0A2
:10288000822794FD877E08950E94991008950E94E2
:1028900092152FEF86E791E0215080409040E1F7BC
:1028A00000C000000E94921580E00E94871480FF03
:1028B00004C00E9444140E94212008950E944714DD
:1028C00008950E94A010811102C00E943E110E9432
:1028D000AB1080934C030E94B51090937D038093BE
:1028E0007C030E945E140E94B01090E00E94460B90
:1028F0008091E0029091E1020E94670B0895089593
:102900000E947F14089508950E9483140895E82F6B
:10291000F0E0EE0FFF1FEA57FC4F80819181089590
:10292000B0E0A0E0E6E9F4E10C94C62786E892E086
:102930000E94870586E8E82E83E0F82ED0E0C0E00C
:1029400091E8C92E92E0D92E08E712E0DF93CF93E9
:10295000DF92CF920E9420068EE792E00E948705C8
:10296000F701819191917F010E944E079F938F9370
:102970001F930F930E94200686E792E00E9487052E
:1029800021968DB79EB708960FB6F8949EBF0FBEDE
:102990008DBFC430D105D1F6CDB7DEB7E8E00C94D9
:1029A000E22780EA8A95F1F7089500C008950E9411
:1029B000D1140895F894E82FE295EF70F0E031A17A
:1029C000282F2F7081E090E001C0880F2A95EAF748
:1029D000982F9095932391A392A1892B82A3789409
:1029E0000895CF93DF9381E90E94DA1484EF0E9467
:1029F000DA1481EF0E94DA1480EF0E94DA14C5E83D
:102A0000D1E089918F3F11F00E94DA1481E0C13941
:102A1000D807B9F7DF91CF910895AF92BF92DF92B7
:102A2000EF92FF920F931F93CF93DF938C01D62EDB
:102A3000C62FD0E0CE018F569E4F7C01FC01208135
:102A40002F3F09F44CC0F894E22FE295EF70F0E0CC
:102A500031A12F7081E090E001C0880F2A95EAF73C
:102A6000932F982B91A392A18095892382A3789488
:102A70000E94D514E5E8F1E041E050E0B12CA12C32
:102A800021912F3FB1F1A22FA295AF70B0E09096A7
:102A90008C9190E02F7002C0959587952A95E2F76A
:102AA00080FD27C0CA01A82AB92A440F551F81E01A
:102AB000E139F80729F7F70180818F3F11F00E9473
:102AC000DA1461E0A114B10409F460E08D2D0E94D4
:102AD000D714CC0FDD1FC00FD11FB982A882DF91A0
:102AE000CF911F910F91FF90EF90DF90BF90AF902B
:102AF000089590E080E0D7CF0E94F11488E0E6E8E6
:102B0000F3E0DF01982F1D929A95E9F7EEE7F3E0E5
:102B1000DF011D928A95E9F784E00E94CD150E949D
:102B200080140895A8E0B0E0E8E9F5E10C94C92725
:102B30008E010F5F1F4F88E0F80111928A95E9F727
:102B4000F12C6F2DC8010E940D15F394F4E0FF12D3
:102B5000F8CF48E050E0B8018EE793E00E940728E4
:102B600021E0009709F420E0892B41F088E0F8018A
:102B7000AEE7B3E001900D928A95E1F744E066E894
:102B800073E08EE793E00E94CE15182F0E94841404
:102B9000812F2896E5E00C94E5270895CF92DF92E7
:102BA000EF92FF921F93CF93DF936C017B01C42FB1
:102BB000222349F081E080934F030E94D61F909317
:102BC0004E0380934D0310914F0311110AC010E082
:102BD000812FDF91CF911F91FF90EF90DF90CF90E9
:102BE000089580914D0390914E030E94EE1F05972A
:102BF00070F3D0E0CC0FDD1FAE01B601C7010E941B
:102C00000728892B41F0AE01B601C7010E941428A4
:102C100010924F03DDCF10E0FBCF0E9466220E948E
:102C2000A4110E94732208950E9478220E94AD117F
:102C30000E949A2208950E946F1F0E944C220E94B7
:102C400087110E940D160E9414160E949A11FBCF44
:102C50009093C1028093C0020895282F35EB23037F
:102C6000C001112497FF04C080589109892F08954D
:102C700080589F4FFBCF8091560380FF0DC060911D
:102C8000070170E0660F771F6038710570F56115F8
:102C9000710569F1862F089581FF07C060910701D2
:102CA00084E0689FB0011124EFCF6091070182FD9D
:102CB0000AC0809155038823A9F0209106016091F4
:102CC0000701821710F088E0ECCF869FC001112425
:102CD00033E0880F991F3A95E1F7622F70E00E9468
:102CE000A227D2CF68E070E0D5CF8FE7089581E0CA
:102CF00008958091560380FF0CC06091030170E03D
:102D000075956795759567956115710549F1862FDC
:102D1000089581FF06C06091030170E07595679585
:102D2000F3CF6091030182FD0BC09091540399236E
:102D3000A1F06091020180910301961738F0682F8D
:102D400070E06038710500F38FE70895899FC00136
:102D5000112470E00E94A227F4CF61E070E0D7CF89
:102D600081E008958D3C31F40E943B16819580935B
:102D70005A0308958E3C19F40E943B16F8CF8F3CFD
:102D800031F40E943B168195809359030895803D4C
:102D900019F40E943B16F8CF893D29F40E94791658
:102DA00080935B0308958A3D21F40E9479168195F2
:102DB000F7CF8B3D31F40E947916819580935C03A7
:102DC00008958C3D19F40E947916F8CF9FE2980F70
:102DD000983070F4815D990B21E030E001C0220F42
:102DE0008A95EAF780915803822B809358030895BF
:102DF0008D3D31F480915603816080935603089590
:102E00008E3D21F4809156038260F7CF8F3DB9F754
:102E1000809156038460F1CF409159038D3C59F461
:102E200080915A0387FF0DC010925A0341110BC0C5
:102E30001092550308C08E3C81F480915A031816F5
:102E40009CF3442381F080915B0390915C03892B78
:102E500009F05AC01092540308958F3C49F447FF7B
:102E6000F0CF1092590380915A038111ECCFE0CF3B
:102E7000803D19F41416ACF3E4CF90915B03893DC7
:102E800029F41916F4F610925B03DBCF8A3D19F48E
:102E900097FFD7CFF8CF90915C038B3D29F497FF34
:102EA000D0CF10925C03CDCF8C3D19F41916CCF322
:102EB000C8CF9FE2980F983090F4815D990B21E084
:102EC00030E0B90102C0660F771F8A95E2F7CB01A7
:102ED000809590915803892380935803B2CF8D3DFC
:102EE00031F4809156038E7F80935603AACF8E3D96
:102EF00021F4809156038D7FF7CF8F3D09F0A1CF4C
:102F0000809156038B7FF0CF089580914C0383FF0F
:102F10007EC084EC92E00E948705809158031F9246
:102F20008F938FEB92E09F938F930E9420068DEBFF
:102F300092E00E94870580915903282F082E000CEB
:102F4000330B3F938F938AEB92E09F938F930E9472
:102F5000200688EB92E00E94870580915A03282F73
:102F6000082E000C330B3F938F9385EB92E09F93D9
:102F70008F930E94200683EB92E00E948705809148
:102F80005B03282F082E000C330B3F938F9380EBAD
:102F900092E09F938F930E9420068EEA92E00E9417
:102FA000870580915C03282F082E000C330B3F937C
:102FB0008F938BEA92E09F938F930E94200688EA7A
:102FC00092E00E948705809155031F928F9385EAB6
:102FD00092E09F938F930E94200683EA92E00E94E2
:102FE0008705809156031F928F9380EA92E09F930A
:102FF0008F930E9420068DE992E00E9487058DB78D
:103000009EB74C960FB6F8949EBF0FBE8DBF0E9420
:10301000D61F9C019091590380915A03982B21F05F
:10302000309353032093520390915B0380915C0390
:10303000982B21F0309351032093500387E593E0C0
:103040000E94561E089586E0E7E5F3E0DF011D9239
:103050008A95E9F710925503109254031092560383
:103060000895FC01828181110EC0838181110BC002
:103070008481811108C091E08581811101C090E0B7
:10308000892F8170089581E0FCCFA6E0B0E0EBE4E9
:10309000F8E10C94CB2786E0E7E5F3E0DE0111963A
:1030A00001900D928A95E1F71092590310925A03FC
:1030B00010925B0310925C038B819C81892B89F0B9
:1030C00080915203909153030E94EE1FAC019091A6
:1030D00055039923C9F1809108018417150608F456
:1030E00040C08D819E81892B91F0809150039091F9
:1030F00051030E94EE1FAC0190915403992309F4EF
:103100006AC0809104018417150608F472C0BE01DC
:103110006F5F7F4F87E593E00E94031F811105C019
:1031200087E593E00E94311881110E94851786E09F
:10313000FE013196A7E5B3E001900D928A95E1F783
:103140002696E3E00C94E727209109018AE0289F66
:10315000900111242417350720F69F5F90935503A3
:1031600002C09F3FD1F71B81112359F00E943B16EB
:103170009FEF11160CF491E0899F802D112480930C
:1031800059031C81112359F00E943B169FEF111621
:103190000CF491E0899F802D112480935A03809133
:1031A0005903882309F49DCF10915A03112309F480
:1031B00098CF0E942D16882351F080935903812FB8
:1031C0000E942D16882329F080935A038ACF81E02C
:1031D000F4CF81E0F9CF209105018AE0289F90018A
:1031E00011242417350708F092CF9F5F9093540362
:1031F00002C09F3FD1F71D81112359F00E9479161B
:103200009FEF11160CF491E0899F802D112480937B
:103210005B031E81112359F00E9479169FEF11164E
:103220000CF491E0899F802D112480935C038091A0
:103230005B03882309F46BCF10915C03112309F41D
:1032400066CF0E942D16882351F080935B03812F57
:103250000E942D16882329F080935C0358CF81E0CB
:10326000F4CF81E0F9CFCF93DF93EC01FB018581AF
:10327000882309F4D2C09E0130572332310508F06B
:10328000B2C00E94B51090937D0380937C03FE0131
:10329000E150F047E232F10520F4E358F74D0C9489
:1032A000B62780917C03816080937C0393C08091DA
:1032B0007D03886080937D038DC080917C03826054
:1032C000F3CF80917C038460EFCF80917C03886092
:1032D000EBCF80917D038160EDCF80917D03826093
:1032E000E9CF80917C038061DFCF80917C03806295
:1032F000DBCF80917C038064D7CF0E94F90A809154
:103300007C038068D1CF80917C038C60CDCF80918D
:103310007D038360CFCF80917C038E7FC5CF80916A
:103320007D03877FC7CF80917C038D7FBDCF809148
:103330007C038B7FB9CF80917C03877FB5CF809151
:103340007D038E7FB7CF80917D038D7FB3CF80913A
:103350007C038F7EA9CF80917C038F7DA5CF809148
:103360007C038F7BA1CF0E94F90A80917C038F7729
:103370009BCF80917C03837F97CF80917D038C7F4F
:1033800099CF80917C0382FB992790F921E09227C5
:1033900090FB82F990FB83F987CF80917D03982F72
:1033A000909591708E7F892B90FB81F983CF9091BE
:1033B0007C03892F8F7B96FF806476CF0E94F90A69
:1033C00090917C03892F97FB87F980586DCF81E01E
:1033D0000E94411180917C0390917D030E94BA105C
:1033E0000E94F90A80E0DF91CF91089580E0F0CF4C
:1033F00090917C03892F8F7E94FF806155CF9091AF
:103400007C03892F8E7F90FF81604ECF90917D034A
:10341000892F877F93FF88604DCF81E0E4CF809133
:1034200002011F928F93809103011F928F938091CD
:1034300006011F928F93809107011F928F938091B5
:1034400008011F928F93809109011F928F9387EE3D
:1034500092E09F938F930E9420068DB79EB70E96A1
:103460000FB6F8949EBF0FBE8DBF0895883228F521
:103470008E3108F072C08B3041F130F4873009F49E
:10348000CFC086E494E0E0C0833109F45FC08431AA
:10349000C1F788E694E00E94870580916103882344
:1034A00009F4FEC0109261031092600310925F0352
:1034B00010925E0310925D0320C08F3409F4C7C0E0
:1034C000D8F5893231F38833E1F68BE694E00E9437
:1034D00087050E940F1A1F9281E08F931F9288E048
:1034E0008F9384E693E09F938F930E9420060F9022
:1034F0000F900F900F900F900F9020916103222357
:1035000009F4C9C080915D0390915E03009711F4A6
:1035100085E991E09F938F931F922F9384E394E02A
:103520009F938F930E9420060F900F900F900F9003
:103530000F900F9081E00895813509F49CC008F444
:103540009CC0823509F09DCF81E082C08AE594E07D
:103550000E9487050E940F1AD0CF8D51809361037E
:10356000833009F442C058F48130C1F08230A1F1B7
:103570001092610387E594E00E9487051BC08530A7
:1035800009F445C0D8F1863099F782E091E0909334
:10359000600380935F038DED91E008C089E091E0C6
:1035A0009093600380935F0389E991E090935E03B9
:1035B00080935D0380916103882309F49ECF1F925D
:1035C0008F9383E594E09F938F930E9420060F9042
:1035D0000F900F900F9091CF88E091E0909360034F
:1035E00080935F0382EA91E0E1CF87E091E09093DE
:1035F000600380935F038EEA91E0D8CF86E091E08C
:103600009093600380935F038BEB91E0CFCF83E0D7
:1036100091E09093600380935F038AEC91E0C6CFC2
:1036200081E08093090184E1809308018AE080931E
:1036300007018EE18093060188E08093030188E210
:103640008093020189E494E00E94870556CF8AE0C6
:10365000E0915F03F09160033097D1F02081082E54
:10366000000C990B820F911D8F3F910541F03CF0AA
:103670008FEF808307C08FEFEBCF86EFE9CF97FF07
:10368000F8CF108280811F928F9380E494E09BCFCB
:103690008DE394E0D9CF80E394E00E9487054ACF80
:1036A00080E00895CF93C82F1F928F9381E894E014
:1036B0009F938F930E94200681E090E002C0880FC4
:1036C000991FCA95E2F70E94460B0E94F90A0F90D3
:1036D0000F900F900F90CF910895EF92FF920F935C
:1036E0001F93CF93DF938B3109F410C108F0B0C062
:1036F0008B3009F4CCC008F082C0863009F4DAC0FF
:1037000048F4853009F4B2C086E298E00E9487054B
:1037100080E0E0C0873009F4E2C08830A9F70E9459
:10372000B0101F928F9389E098E09F938F930E942F
:1037300020060E94AB1083FB992790F91F929F935C
:1037400082FB992790F91F929F9381FB992790F90B
:103750001F929F93982F91701F929F931F928F9308
:1037600080EC97E09F938F930E9420060E94B510F3
:1037700093FB222720F91F922F9387FB222720F902
:103780001F922F9386FB222720F91F922F9385FBF0
:10379000222720F91F922F9384FB222720F91F92C2
:1037A0002F9383FB222720F91F922F9382FB22273E
:1037B00020F91F922F9391FB222720F91F922F931C
:1037C000292F21701F922F9381FB222720F91F920E
:1037D0002F93282F21701F922F939F938F9381EC0B
:1037E00096E09F938F930E9420068DB79EB78A968E
:1037F0000FB6F8949EBF0FBE8DBF81E06BC08031C5
:1038000009F49CC080F48E3009F07ECF90914C0377
:10381000892F8B7F92FF846080934C0382FF8BC043
:1038200081E598E07FC0863109F498C0893109F0BC
:103830006BCF82EF91E09F938F9381EF94E09F9302
:103840008F930E9420060F900F900F900F90D5CF6E
:103850008A3249F190F4873211F128F48E3108F45C
:1038600053CF8D511DC0893209F04ECF84E998E0C5
:103870000E9487050E94B906C0CF833468F48A335A
:1038800008F091C0853359F0883309F03DCF8BE1C2
:1038900095E00E948705B1CF833409F035CF80E0F1
:1038A0000E94521BAACF84EB98E00E9487050E94D9
:1038B0003E11A3CF80914C03807F80934C0384EF13
:1038C00094E00E94870580EB98E00E94870581E0E4
:1038D00080936203CDB7DEB7E6E00C94E4279091C5
:1038E0004C03892F8E7F90FF816080934C0380FF73
:1038F00003C088E898E0CDCF8BE798E00E94870569
:1039000080914C03817F80934C0377CF90914C033F
:10391000892F8D7F91FF826080934C0381FF08C0C7
:103920008EE698E00E94870580914C038160EBCF82
:1039300080E698E0AECF81E498E0ABCF90914C0365
:10394000892F877F93FF886080934C0383FF03C098
:1039500085E398E0E7CF88E298E09BCF0E94E21FE2
:10396000162F072FF82EE92ED0917B03C09112015C
:103970000E94051EEF92FF920F931F931F92DF93F9
:103980001F92CF931F928F9386E894E09F938F931B
:103990000E9420068DB79EB70C960FB6F8949EBF76
:1039A0000FBE8DBF2ACF89537BCF80E008950E9440
:1039B000D51C0895CF93C82F809162038130C1F048
:1039C000882339F0823009F444C01092620380E009
:1039D0000DC00E948C0F8232D1F78C2F0E94D51C13
:1039E00081111BC08C2F0E946D1B8170CF91089597
:1039F0000E948C0F823289F38C2F0E94D71C811178
:103A00001BC0C431D9F060F4CB3071F0C031D1F0BB
:103A10008BE794E00E94870513C081E090E0E5CF3A
:103A2000C93261F0C833A1F784EF94E00E948705A2
:103A30008DE794E00E94870581E0D7CF1092620362
:103A400080E0D3CF82E08093620388E30E94361A3D
:103A5000F3CF8C2F0E94361A81E0C8CFCF93DF932B
:103A6000EB0186319C4711F50E948C0F9D819923B3
:103A700099F08A7A91E009F490E0909363038111C0
:103A800009C089E20E94640F0E94E50F80E0DF9187
:103A9000CF91089585E3F6CF80916303811104C02F
:103AA00089E20E946C0FF0CF85E3FBCF81E0EFCF7E
:103AB0000F931F93CF93DF93C42FD22FFC018581E7
:103AC0008823C9F0409366030E94D61F9093650334
:103AD0008093640380E28C0F883040F4C77081E0EB
:103AE00001C0880FCA95EAF70E94A508DF91CF911F
:103AF0001F910F91089510916603141332C08091A5
:103B00006403909165030E94EE1F883C910548F57F
:103B1000C0E2CD0F1D17B9F080E2810F883040F46C
:103B2000177081E001C0880F1A95EAF70E94AC086F
:103B3000C83048F481E09D2F977001C0880F9A9596
:103B4000EAF70E94A508802F0E949C08C83070F6F2
:103B5000D77081E001C0880FDA95EAF70E94AC08BF
:103B6000C5CF80E28C0F883008F6C77081E001C0B5
:103B7000880FCA95EAF7F2CF0F93DB0188519C4773
:103B800087309105A0F5FC01E156F74D0C94B6275E
:103B900006E221EE41EE6AE17CE7CD010E94581D6C
:103BA00080E00F91089507E225EE45EE6BE17CE79A
:103BB000F4CF06E221EE40EE68E17CE7EECF07E2CB
:103BC00025EE44EE69E17CE7E8CF06E221EE42EE25
:103BD0006CE17CE7E2CF07E225EE46EE6DE17CE7A3
:103BE000DCCF08E221E045EE6EE17CE7D6CF15960A
:103BF0008C91882319F010926603D3CF81E0D1CF46
:103C000090936C0380936B030895E0916B03F091A4
:103C10006C03309729F00190F081E02D099508950B
:103C200080E00895EF92FF920F931F93CF93DF935D
:103C30008C01E0916B03F0916C03309791F102805D
:103C4000F381E02D099580914C0382FF2AC080FF0B
:103C500004C08DEC98E00E948705D0E0C0E087ECBE
:103C6000E82E88E0F82E80914C0380FF0EC0F8010A
:103C7000EC0FFD1F80811F928F93FF92EF920E94A5
:103C800020060F900F900F900F902196C830D1050D
:103C900051F780914C0380FF04C085EC98E00E94AE
:103CA0008705CDB7DEB7E6E00C94E427E0916B031F
:103CB000F0916C03309739F022E0DC012C93048002
:103CC000F581E02D09950895A3E0B0E0EAE6FEE174
:103CD0000C94CC272091690330916A032817390787
:103CE000A1F090936A0380936903E0916B03F091D4
:103CF0006C03309751F023E029839B838A830680ED
:103D0000F781E02DCE01019609952396E2E00C940F
:103D1000E827A3E0B0E0EFE8FEE10C94CC27209187
:103D200067033091680328173907A1F0909368035F
:103D300080936703E0916B03F0916C03309751F02F
:103D400024E029839B838A830680F781E02DCE01BE
:103D5000019609952396E2E00C94E8279C012E5FDA
:103D60003F4FAC01485F5F4F80E02417350709F4EF
:103D70000895F90191919F019923B9F38F5FF5CFD0
:103D8000662349F0FC01329608962191261729F006
:103D9000E817F907D1F780E0089581E008959C01C4
:103DA000FC0132969FEF80E04191461751F09F3F12
:103DB00019F4411101C0982F8F5F8630A9F79F3FFA
:103DC00009F40895290F311D97FD3A95F901628391
:103DD0000895FC01329608962191261303C0DF0155
:103DE00011971C92E817F907B9F708950E94CF1EA2
:103DF00008950E94E91E0895029626E0FC011192A2
:103E00002A95E9F70895DC01FB0111969C91119721
:103E10008181981322C012968C911297882319F0F1
:103E2000928189131AC013968C911397882319F0E5
:103E30009381891312C015968C911597882319F0D8
:103E4000958189130AC014969C91992321F081E0F1
:103E50002481291303C080E001C081E081700895AE
:103E600008950E94301F0895811106C081E080935B
:103E70006D030E94311F089582E0F9CF83E08093A3
:103E80006D030E94311F08950E94341F089581E040
:103E900080936D030E94311F08950E94471F08956B
:103EA000089508950E94511F0895089508950E944D
:103EB000501F0895CF930E94551F0E9492150E9493
:103EC000561FC0E08C2F0E948714892B31F4CF5FDE
:103ED000C430C1F780E0CF91089581E0FCCF85B771
:103EE000806885BF85B7806885BF08951F921FB61B
:103EF0001F9211248F939F93AF93BF9380916E0372
:103F0000811113C080918E0390918F03A091900333
:103F1000B09191034196A11DB11D80938E039093A2
:103F20008F03A0939003B0939103BF91AF919F91A2
:103F30008F911F901FBE1F9018958091960384301B
:103F400031F10E942C0710926E0388E190E020E48A
:103F50000FB6F894A895809360000FBE2093600080
:103F600083B7817F846083BF83B7816083BF789488
:103F7000889583B78E7F83BF0FB6F894A8958091FC
:103F80006000886180936000109260000FBE089509
:103F90000E94F90A0E943107089582E084BD93E0EF
:103FA00095BD9AEF97BD80936E0008952FB7F89452
:103FB00080918E0390918F03A0919003B091910313
:103FC0002FBF08952FB7F89460918E0370918F03DF
:103FD00080919003909191032FBF08959C014FB75A
:103FE000F89480918E0390918F03A0919003B091EB
:103FF00091034FBF821B930B089578941F921FB6B5
:104000001F9211248F939F93AF93BF9380918E0340
:1040100090918F03A0919003B09191030196A11DFF
:10402000B11D80938E0390938F03A0939003B09360
:104030009103BF91AF919F918F911F901FBE1F90D1
:10404000189581E08093E00080E28093D800109280
:10405000C9008FE19EE40197F1F700C0000087E0FE
:1040600090EBDC0180939F039093A003A093A103A6
:10407000B093A20388E19CE00FB6F894A8958093D2
:1040800060000FBE90936000FFCF88E19CE00FB608
:10409000F894A895809360000FBE90936000FFCFC6
:1040A00080917A0308959B01BA0190919603943010
:1040B000E9F48F708093E9009FEF8091E8009150C0
:1040C00085FD06C085ED8A95F1F700009111F5CFC9
:1040D0008091E80085FF0AC050E040E0C9010E94DD
:1040E00010238091E8008E778093E800089543E0E4
:1040F00050E0BC0182E00E945320089546E050E069
:10410000BC0182E00E9453200895CF93DF93EC011D
:1041100048E050E0BC0181E00E94532088E0FE01AD
:10412000A2E7B3E001900D928A95E1F7DF91CF917C
:10413000089585E099E00E9487058091950381119B
:1041400009C00E94A0240E94FD248091E2008460A6
:104150008093E200089581E099E00E948705109223
:10416000950308958DEF98E00E9487050E94471FF0
:10417000089589EF98E00E9487056091920381E09D
:10418000611101C080E00E943E1F089585EF98E014
:104190000E9487059091960381E0943009F080E0B9
:1041A000609192030E94441F0895209170032F5F35
:1041B000822F62E30E949627992319F020937003BF
:1041C000089510927003809171038823F1F080911B
:1041D00096038430C1F49091E9009F702091EC0027
:1041E000822F817020FD80E8892B93E09093E90075
:1041F0009091EB0090FF04C09091EE0097FD08C0F5
:104200008F708093E9001092710308951092F1006D
:104210009091E80095FDFACF9091E80090FFF0CFE3
:104220009091E8009E779093E800EACF42E061EC3D
:1042300081E00E941C2442E261EC82E00E941C2486
:1042400042E261EC83E00E941C249091960381E09D
:10425000943009F080E0609192030E94341F089529
:1042600080919803833009F461C030F48130D1F13A
:10427000823009F49EC008958A3009F48AC08B30D8
:1042800009F46FC0893009F050C0809197038132E2
:1042900009F04BC080919B0390919C03029708F01A
:1042A00044C08091E800877F8093E8008091E80017
:1042B00082FF37C09091F3008091F200029731F4B1
:1042C0008091F100813011F0863021F48091F1006D
:1042D00080937A038091E8008B778093E8000E94B6
:1042E000502423C080919703813AF9F48091E8002B
:1042F000877F8093E80080919B0390919C03892B9A
:1043000061F468E082E793E070E00E945F238091AF
:10431000E8008B778093E800089560E090E080E00B
:10432000F3CF809196038111C1CF089580919703B7
:10433000813AD9F780919B0390919C03892BA9F72F
:104340008091E800877F8093E8008091E80080FFFB
:10435000FCCF809112018093F1008091E8008E776C
:10436000BCCF80919703813201F780919B0390919C
:104370009C03892BD1F68091E800877F8093E80029
:104380000E94502480919903809312010E94F90A9F
:10439000089580919703813241F68091E800877FEC
:1043A0008093E8000E94502480919A0380937B03BD
:1043B000089580919703813A09F0B7CF8091E80082
:1043C000877F8093E8008091E80080FFFCCF809198
:1043D0007B03C1CF9FB7F894109271039FBF909158
:1043E0009603943009F048C02091E9002F70309175
:1043F000EC00932F917030FD90E8922B23E02093F6
:10440000E9002091EB0020FF34C02091EE0027FF4F
:1044100030C020916F03222321F02091E80025FF76
:1044200028C010926F0326E03091E80035FF14C0D9
:104430008093F1008091E80085FD27C08091E8001D
:1044400080FFFCCF8091E8008E778093E8009F701A
:104450009093E90080E0089530919603343049F458
:104460003091EB0035FD05C0215041F481E080938F
:104470006F039F709093E9008FEF0895EFE9FFE0DD
:104480003197F1F700C00000CFCF8FB7F89421E04B
:10449000209371038FBFDBCF84B7877F84BF0FB6B4
:1044A000F894A895809160008861809360001092D4
:1044B00060000FBE80E890E00FB6F8948093610032
:1044C000909361000FBE0E944D1F08950E94A0248A
:1044D0000E94FD24E2EEF0E0808184608083789485
:1044E0000E947B2708958AE091E00E94001E0895B3
:1044F00080919603853071F480914C0380FF04C055
:104500008FED98E00E94870580919603853019F021
:104510000E94C81F08950E949D1F809194038823C4
:1045200099F30E945A1F882379F30E94FA220E946D
:10453000F90AEACF08959A0140919D0350919E0394
:104540000E94A3220895492F55274330510521F198
:1045500068F44130510509F443C04230510509F473
:1045600044C090E080E050E040E026C04132510578
:1045700051F142325105A9F76330710590F7FB0103
:10458000EE0FFF1FEC54FD4F408151816F547D4F62
:10459000FB01808190E010C099278130910581F066
:1045A000009729F00297E9F6E9E0F9E002C0EFE2AE
:1045B000F9E0849190E0AF01F901518340830895BF
:1045C000E7E1F9E0F6CF6330710558F6660F771F23
:1045D000FB01E654FD4F4081518189E090E0ECCF32
:1045E00082E190E04EE859E0E7CF8BE590E043E3CD
:1045F00059E0E2CF80E189BD82E189BD09B400FEC6
:10460000FDCF8091D8008F7D8093D8008091E0000D
:1046100082608093E0008091E00081FDFCCF0895EE
:10462000AF92BF92CF92DF92FF920F931F93CF93DF
:10463000DF936C01EB018A010E946F24F82E811137
:1046400023C00115110539F0F80180819181C81B43
:10465000D90BC80ED91EB12CA12C2097A9F080919E
:10466000E80085FD22C08091E8008E778093E80005
:1046700001151105A1F0F80180819181A80EB91EE4
:10468000B182A08285E0F82E8F2DDF91CF911F910E
:104690000F91FF90DF90CF90BF90AF9008950E9450
:1046A0006F248823D1F2F82EEFCFF60181916F01AC
:1046B0008093F1002197FFEFAF1ABF0ACECFFC0124
:1046C00080919D0390919E0386179707A0F0611536
:1046D000710529F49091E8009E779093E80090E0AE
:1046E0006115710551F4911108C08091E80082FFB5
:1046F00034C080E00895BC01F2CF809196038823F6
:10470000C1F18530C1F18091E80083FD30C0809116
:10471000E80082FDEACF8091E80080FFE1CF809140
:10472000F3002091F200382F6115710519F028303F
:10473000310558F091E02830310509F090E02091E2
:10474000E8002E772093E800CBCF81918093F10091
:10475000615071092F5F3F4FE7CF80919603882307
:1047600041F0853041F08091E80083FFBECF81E0C9
:10477000089582E0089583E00895FC0180919D03EF
:1047800090919E0386179707A0F06115710529F493
:104790008091E8008E778093E80090E061157105C4
:1047A00051F4911108C08091E80082FF35C080E08B
:1047B0000895BC01F2CF809196038823C9F185301A
:1047C000C9F18091E80083FD31C08091E80082FD4D
:1047D000EACF8091E80080FFE1CF8091F300209143
:1047E000F200382F6115710519F02830310558F0A5
:1047F00091E02830310509F090E08091E8008E7753
:104800008093E800CBCF84918093F1003196615082
:1048100071092F5F3F4FE6CF80919603882341F0C7
:10482000853041F08091E80083FFBDCF81E008959D
:1048300082E0089583E00895982F973028F08F70D4
:104840008093E90081E008959093E900242F762F6A
:1048500050E0981731F07091EC002091ED005091EC
:10486000F00021FD02C09F5FE8CF3091EB003E7F5A
:104870003093EB003091ED003D7F3093ED003091AF
:10488000EB0031603093EB007093EC002093ED006F
:104890005093F0002091EE0027FDE5CF80E00895D1
:1048A0008091970387FF13C08091E80082FF06C0C4
:1048B0008091E8008B778093E80004C08091960394
:1048C0008111F2CF0895809196038823D9F38091C6
:1048D000E80080FFF8CF8091E8008E77ECCF209140
:1048E000E4003091E50095E6A9012091EC00822FCB
:1048F000817020FF06C08091E80080FF06C080E044
:1049000008952091E80022FD1AC080919603882323
:1049100089F0853089F08091EB0085FD0FC02091F2
:10492000E4003091E50042175307F9F29150E1F6A7
:1049300084E0089582E0089583E0089581E0089579
:104940000E940F250E941725E0EEF0E08081816033
:104950008083E8EDF0E080818F77808319BCA7ED3C
:10496000B0E08C918E7F8C9380818F7E80831092BB
:10497000950308950F931F93CF93DF930E940F2504
:104980000E941725C8EDD0E088818F7788838881C1
:104990008068888388818F7D888319BC10929603F4
:1049A00010929203109294031092930300EE10E081
:1049B000F80180818B7F808388818160888342E0D9
:1049C00060E080E00E941C24E1EEF0E080818E7FB8
:1049D0008083E2EEF0E08081816080838081886066
:1049E0008083F80180818E7F8083888180618883C5
:1049F000DF91CF911F910F910895E8EDF0E0808154
:104A00008F7E8083E7EDF0E080818160808384E0A9
:104A100082BF81E0809395030E94BA240895E8ED57
:104A2000F0E080818E7F80831092E20008951092E2
:104A3000DA001092E10008951F920F920FB60F92C4
:104A400011242F933F934F935F936F937F938F9393
:104A50009F93AF93BF93EF93FF938091E10082FF09
:104A60000BC08091E20082FF07C08091E1008B7F44
:104A70008093E1000E94D5208091DA0080FF19C068
:104A80008091D80080FF15C08091DA008E7F8093DE
:104A9000DA008091D90080FF96C080E189BD82E173
:104AA00089BD09B400FEFDCF81E0809396030E948A
:104AB00099208091E10080FF19C08091E20080FF81
:104AC00015C08091E2008E7F8093E2008091E20029
:104AD00080618093E2008091D80080628093D8004A
:104AE00019BC85E0809396030E94B9208091E10073
:104AF00084FF2BC08091E20084FF27C080E189BD44
:104B000082E189BD89B5982F917080FFFBCF80919C
:104B1000D8008F7D8093D8008091E1008F7E8093B4
:104B2000E1008091E2008F7E8093E2008091E200BC
:104B300081608093E20080919203882309F449C048
:104B400084E0809396030E94C6208091E10083FF59
:104B500029C08091E20083FF25C08091E100877F1A
:104B60008093E10082E080939603109292038091FB
:104B7000E1008E7F8093E1008091E2008E7F809340
:104B8000E2008091E20080618093E20042E060E018
:104B900080E00E941C248091F00088608093F000E7
:104BA0000E94B220FF91EF91BF91AF919F918F91A1
:104BB0007F916F915F914F913F912F910F900FBE19
:104BC0000F901F90189519BC109296030E94AB206D
:104BD00070CF8091E30087FD93E090939603B3CF6D
:104BE0001F920F920FB60F9211242F933F934F9362
:104BF0005F936F937F938F939F93AF93BF93CF9365
:104C0000DF93EF93FF93D091E900DF708091EC0088
:104C1000C82FC17080FDC0E81092E9008091F000BB
:104C2000877F8093F00078940E9434261092E900E8
:104C30008091F00088608093F000CD2BCF70C093FE
:104C4000E900FF91EF91DF91CF91BF91AF919F91DB
:104C50008F917F916F915F914F913F912F910F9025
:104C60000FBE0F901F901895AAE2B0E0EAE3F6E2BB
:104C70000C94CB2787E993E02091F100FC0121936C
:104C8000CF01F3E08F399F07B9F70E94302180915F
:104C9000E80083FF1EC180919703909198039A309A
:104CA00008F017C1E92FF0E0EA55F74D0C94B6274C
:104CB000803899F0823809F00CC180919B038F7085
:104CC000873008F006C18093E9008091EB0085FBF6
:104CD000882780F91092E90006C080919303909193
:104CE0009403911182609091E800977F9093E8007F
:104CF0008093F1001092F1008091E8008E77E5C07A
:104D0000882309F4D3C0823009F0E3C0809199036D
:104D10008111D6C080919B038F702FEF280F263012
:104D200008F0D7C08093E9002091EB0020FFC8C0B5
:104D3000933031F48091EB0080628093EB00C0C02F
:104D40009091EB0090619093EB0021E030E001C086
:104D5000220F8A95EAF72093EA001092EA008091E8
:104D6000EB008860EACF8111B4C0109199031F77DE
:104D70008091E3008078812B8093E3008091E800AC
:104D8000877F8093E8000E9450248091E80080FF94
:104D9000FCCF8091E30080688093E30082E01111F2
:104DA00083E08093960395C08058823008F091C0CC
:104DB0008091990390919A038C3D23E09207A1F58D
:104DC00083E08A838AE289834FB7F894DE011396E1
:104DD00020E03EE051E2E32FF0E050935700E491F1
:104DE00020FF03C0E295EF703F5FEF708E2F90E0E1
:104DF000EA30C0F0C7968D939D932F5F243159F709
:104E00004FBF8091E800877F8093E8006AE270E0FE
:104E1000CE0101960E945F238091E8008B778093FA
:104E2000E80057C0C096E7CF60919B0370919C0348
:104E3000AE014F5F5F4F0E949B22BC01892B09F49A
:104E400048C09091E800977F9093E80089819A810B
:104E50000E94BD23E1CF8038E1F58091E800877F93
:104E60008093E800809192038093F10045CF8111F7
:104E700030C090919903923060F58091E800877F6F
:104E80008093E800909392030E94502480919203B3
:104E9000882311F084E005C08091E30087FDFACFFC
:104EA00081E0809396030E94162113C0809199039C
:104EB000813079F481E0933009F080E080939403AD
:104EC0001092E9008091E800877F8093E8000E94BB
:104ED00050248091E80083FF0AC08091E800877F1A
:104EE0008093E8008091EB0080628093EB00AA96AB
:104EF000E3E00C94E727CF93809196038823A1F0F9
:104F0000C091E900CF709091EC00892F817090FDE5
:104F100080E8C82B1092E9008091E80083FD0E9490
:104F20003426CF70C093E900CF910895991B79E0A2
:104F300004C0991F961708F0961B881F7A95C9F729
:104F40008095089597FB072E16F4009407D077FDFF
:104F500009D00E94F32707FC05D03EF49095819577
:104F60009F4F0895709561957F4F0895EE0FFF1F35
:104F70000590F491E02D09942F923F924F925F9209
:104F80006F927F928F929F92AF92BF92CF92DF9259
:104F9000EF92FF920F931F93CF93DF93CDB7DEB7BE
:104FA000CA1BDB0B0FB6F894DEBF0FBECDBF099452
:104FB0002A88398848885F846E847D848C849B84A9
:104FC000AA84B984C884DF80EE80FD800C811B81B7
:104FD000AA81B981CE0FD11D0FB6F894DEBF0FBEE6
:104FE000CDBFED010895AA1BBB1B51E107C0AA1F4D
:104FF000BB1FA617B70710F0A61BB70B881F991F7A
:105000005A95A9F780959095BC01CD010895FB01B3
:10501000DC0104C08D910190801921F44150504071
:10502000C8F7881B990B0895FB01DC0102C00190B1
:105030000D9241505040D8F70895F999FECF92BD96
:1050400081BDF89A992780B50895A8E1B0E042E0C3
:1050500050E00C946128DC01A40FB51F4150504072
:1050600048F0CB01840F951F2E910E943C2841509F
:105070005040D0F70895262FF999FECF92BD81BDFB
:10508000F89A019700B4021639F01FBA20BD0FB686
:10509000F894FA9AF99A0FBE08950396272F0E9462
:1050A0003C280E943B28252F0E943C28242F0C944A
:1050B0003C280196272F0E943C280C943B28DC01B9
:1050C000CB01FC01F999FECF06C0F2BDE1BDF89A13
:1050D000319600B40D9241505040B8F70895F894BD
:1050E000FFCFF208F20842094209A709C3092109C2
:1050F0002109C809390A480A480A8B19FF19931966
:105100005D196119971965199B19A7197119F81972
:105110007519AB197919AF19D7197D19B319DE199A
:105120008319B919C11969199F196D19A31987191B
:10513000BD19CD19E719F61957198F19061AD91D76
:10514000DF1DC81DD31DE51DEB1DF11D5826802652
:10515000692780266927B326D42669272B27372776
:105160003003280850011E0A1401502085207E209B
:10517000772001E200E900EA00B500B600B700CDF3
:10518000008301CC008A01920194012102230224B0
:10519000022502260227022A02B300B4006F007023
:1051A000009F01CB019F02A002818283E200E900FF
:1051B000EA00B500B600B700CD008301CC008A013B
:1051C00092019401210223022402250226022702D1
:1051D0002A02B300B4006F0070009F01CB019F0250
:1051E000A00281828330F5F6F767663635349796EC
:1051F0009491F4F1F03F3F3F006D6B5F64656C612B
:1052000079006D6B5F696E74657276616C006D6BB1
:105210005F6D61785F7370656564006D6B5F746965
:105220006D655F746F5F6D6178006D6B5F7768654A
:10523000656C5F6D61785F7370656564006D6B5F51
:10524000776865656C5F74696D655F746F5F6D61CC
:1052500078000A092D2056657273696F6E202D0A39
:105260005649443A2030784645454428224B50520E
:10527000657075626C69632229205049443A203078
:1052800078303030302822424D34334122292056A4
:1052900045523A203078303030310A4255494C443A
:1052A0003A202028536570202033203230323329B1
:1052B0000A4F5054494F4E533A204C554641204DC9
:1052C0004F5553454B45592045585452414B45592C
:1052D00020434F4E534F4C4520434F4D4D414E447C
:1052E00020343039360A4743433A20382E332E30A3
:1052F000204156522D4C4942433A20322E302E3016
:10530000204156525F415243483A20617672350A35
:1053100000447B223D0AC209A00945095E097709BC
:00000001FF
